{
  "contractName": "Adoption",
  "abi": [
    {
      "constant": true,
      "inputs": [
        {
          "internalType": "uint256",
          "name": "",
          "type": "uint256"
        }
      ],
      "name": "adopters",
      "outputs": [
        {
          "internalType": "address",
          "name": "",
          "type": "address"
        }
      ],
      "payable": false,
      "stateMutability": "view",
      "type": "function"
    },
    {
      "constant": true,
      "inputs": [
        {
          "internalType": "uint256",
          "name": "",
          "type": "uint256"
        }
      ],
      "name": "availablePets",
      "outputs": [
        {
          "internalType": "uint256",
          "name": "id",
          "type": "uint256"
        },
        {
          "internalType": "string",
          "name": "name",
          "type": "string"
        },
        {
          "internalType": "string",
          "name": "age",
          "type": "string"
        },
        {
          "internalType": "address",
          "name": "owner",
          "type": "address"
        },
        {
          "internalType": "bool",
          "name": "isAdopted",
          "type": "bool"
        },
        {
          "internalType": "string",
          "name": "species",
          "type": "string"
        },
        {
          "internalType": "string",
          "name": "breed",
          "type": "string"
        },
        {
          "internalType": "string",
          "name": "picture",
          "type": "string"
        },
        {
          "internalType": "string",
          "name": "location",
          "type": "string"
        }
      ],
      "payable": false,
      "stateMutability": "view",
      "type": "function"
    },
    {
      "constant": false,
      "inputs": [
        {
          "internalType": "string",
          "name": "_name",
          "type": "string"
        },
        {
          "internalType": "string",
          "name": "_age",
          "type": "string"
        },
        {
          "internalType": "string",
          "name": "_species",
          "type": "string"
        },
        {
          "internalType": "string",
          "name": "_breed",
          "type": "string"
        },
        {
          "internalType": "string",
          "name": "_picture",
          "type": "string"
        },
        {
          "internalType": "string",
          "name": "_location",
          "type": "string"
        }
      ],
      "name": "addPet",
      "outputs": [],
      "payable": false,
      "stateMutability": "nonpayable",
      "type": "function"
    },
    {
      "constant": true,
      "inputs": [
        {
          "internalType": "uint256",
          "name": "index",
          "type": "uint256"
        }
      ],
      "name": "getPetName",
      "outputs": [
        {
          "internalType": "string",
          "name": "",
          "type": "string"
        }
      ],
      "payable": false,
      "stateMutability": "view",
      "type": "function"
    },
    {
      "constant": true,
      "inputs": [
        {
          "internalType": "uint256",
          "name": "index",
          "type": "uint256"
        }
      ],
      "name": "getPetAge",
      "outputs": [
        {
          "internalType": "string",
          "name": "",
          "type": "string"
        }
      ],
      "payable": false,
      "stateMutability": "view",
      "type": "function"
    },
    {
      "constant": true,
      "inputs": [
        {
          "internalType": "uint256",
          "name": "index",
          "type": "uint256"
        }
      ],
      "name": "getPetSpecies",
      "outputs": [
        {
          "internalType": "string",
          "name": "",
          "type": "string"
        }
      ],
      "payable": false,
      "stateMutability": "view",
      "type": "function"
    },
    {
      "constant": true,
      "inputs": [
        {
          "internalType": "uint256",
          "name": "index",
          "type": "uint256"
        }
      ],
      "name": "getPetBreed",
      "outputs": [
        {
          "internalType": "string",
          "name": "",
          "type": "string"
        }
      ],
      "payable": false,
      "stateMutability": "view",
      "type": "function"
    },
    {
      "constant": true,
      "inputs": [
        {
          "internalType": "uint256",
          "name": "index",
          "type": "uint256"
        }
      ],
      "name": "getPetPicture",
      "outputs": [
        {
          "internalType": "string",
          "name": "",
          "type": "string"
        }
      ],
      "payable": false,
      "stateMutability": "view",
      "type": "function"
    },
    {
      "constant": true,
      "inputs": [
        {
          "internalType": "uint256",
          "name": "index",
          "type": "uint256"
        }
      ],
      "name": "getPetId",
      "outputs": [
        {
          "internalType": "uint256",
          "name": "",
          "type": "uint256"
        }
      ],
      "payable": false,
      "stateMutability": "view",
      "type": "function"
    },
    {
      "constant": true,
      "inputs": [
        {
          "internalType": "uint256",
          "name": "index",
          "type": "uint256"
        }
      ],
      "name": "getPetLocation",
      "outputs": [
        {
          "internalType": "string",
          "name": "",
          "type": "string"
        }
      ],
      "payable": false,
      "stateMutability": "view",
      "type": "function"
    },
    {
      "constant": false,
      "inputs": [
        {
          "internalType": "uint256",
          "name": "petId",
          "type": "uint256"
        }
      ],
      "name": "adopt",
      "outputs": [
        {
          "internalType": "uint256",
          "name": "",
          "type": "uint256"
        }
      ],
      "payable": false,
      "stateMutability": "nonpayable",
      "type": "function"
    },
    {
      "constant": true,
      "inputs": [],
      "name": "getAdopters",
      "outputs": [
        {
          "internalType": "address[16]",
          "name": "",
          "type": "address[16]"
        }
      ],
      "payable": false,
      "stateMutability": "view",
      "type": "function"
    }
  ],
  "bytecode": "0x608060405234801561001057600080fd5b50611a2c806100206000396000f3fe608060405234801561001057600080fd5b50600436106100b45760003560e01c8063788063f011610071578063788063f01461051f5780638588b2c514610827578063a016ee0a14610869578063b2aceec314610910578063b55ff6c3146109b7578063d787a4cc14610a5e576100b4565b80633de4eb17146100b957806343ae80d3146100ff57806346bfb58d1461016d57806367d923861461021457806368d80b321461043657806369d2651014610478575b600080fd5b6100c1610b05565b6040518082601060200280838360005b838110156100ec5780820151818401526020810190506100d1565b5050505090500191505060405180910390f35b61012b6004803603602081101561011557600080fd5b8101908080359060200190929190505050610b86565b604051808273ffffffffffffffffffffffffffffffffffffffff1673ffffffffffffffffffffffffffffffffffffffff16815260200191505060405180910390f35b6101996004803603602081101561018357600080fd5b8101908080359060200190929190505050610bb9565b6040518080602001828103825283818151815260200191508051906020019080838360005b838110156101d95780820151818401526020810190506101be565b50505050905090810190601f1680156102065780820380516001836020036101000a031916815260200191505b509250505060405180910390f35b610434600480360360c081101561022a57600080fd5b810190808035906020019064010000000081111561024757600080fd5b82018360208201111561025957600080fd5b8035906020019184600183028401116401000000008311171561027b57600080fd5b90919293919293908035906020019064010000000081111561029c57600080fd5b8201836020820111156102ae57600080fd5b803590602001918460018302840111640100000000831117156102d057600080fd5b9091929391929390803590602001906401000000008111156102f157600080fd5b82018360208201111561030357600080fd5b8035906020019184600183028401116401000000008311171561032557600080fd5b90919293919293908035906020019064010000000081111561034657600080fd5b82018360208201111561035857600080fd5b8035906020019184600183028401116401000000008311171561037a57600080fd5b90919293919293908035906020019064010000000081111561039b57600080fd5b8201836020820111156103ad57600080fd5b803590602001918460018302840111640100000000831117156103cf57600080fd5b9091929391929390803590602001906401000000008111156103f057600080fd5b82018360208201111561040257600080fd5b8035906020019184600183028401116401000000008311171561042457600080fd5b9091929391929390505050610c7f565b005b6104626004803603602081101561044c57600080fd5b8101908080359060200190929190505050610fd9565b6040518082815260200191505060405180910390f35b6104a46004803603602081101561048e57600080fd5b8101908080359060200190929190505050611006565b6040518080602001828103825283818151815260200191508051906020019080838360005b838110156104e45780820151818401526020810190506104c9565b50505050905090810190601f1680156105115780820380516001836020036101000a031916815260200191505b509250505060405180910390f35b61054b6004803603602081101561053557600080fd5b81019080803590602001909291905050506110cc565b604051808a815260200180602001806020018973ffffffffffffffffffffffffffffffffffffffff1673ffffffffffffffffffffffffffffffffffffffff168152602001881515151581526020018060200180602001806020018060200187810387528f818151815260200191508051906020019080838360005b838110156105e15780820151818401526020810190506105c6565b50505050905090810190601f16801561060e5780820380516001836020036101000a031916815260200191505b5087810386528e818151815260200191508051906020019080838360005b8381101561064757808201518184015260208101905061062c565b50505050905090810190601f1680156106745780820380516001836020036101000a031916815260200191505b5087810385528b818151815260200191508051906020019080838360005b838110156106ad578082015181840152602081019050610692565b50505050905090810190601f1680156106da5780820380516001836020036101000a031916815260200191505b5087810384528a818151815260200191508051906020019080838360005b838110156107135780820151818401526020810190506106f8565b50505050905090810190601f1680156107405780820380516001836020036101000a031916815260200191505b50878103835289818151815260200191508051906020019080838360005b8381101561077957808201518184015260208101905061075e565b50505050905090810190601f1680156107a65780820380516001836020036101000a031916815260200191505b50878103825288818151815260200191508051906020019080838360005b838110156107df5780820151818401526020810190506107c4565b50505050905090810190601f16801561080c5780820380516001836020036101000a031916815260200191505b509f5050505050505050505050505050505060405180910390f35b6108536004803603602081101561083d57600080fd5b81019080803590602001909291905050506114e4565b6040518082815260200191505060405180910390f35b6108956004803603602081101561087f57600080fd5b8101908080359060200190929190505050611617565b6040518080602001828103825283818151815260200191508051906020019080838360005b838110156108d55780820151818401526020810190506108ba565b50505050905090810190601f1680156109025780820380516001836020036101000a031916815260200191505b509250505060405180910390f35b61093c6004803603602081101561092657600080fd5b81019080803590602001909291905050506116dd565b6040518080602001828103825283818151815260200191508051906020019080838360005b8381101561097c578082015181840152602081019050610961565b50505050905090810190601f1680156109a95780820380516001836020036101000a031916815260200191505b509250505060405180910390f35b6109e3600480360360208110156109cd57600080fd5b81019080803590602001909291905050506117a3565b6040518080602001828103825283818151815260200191508051906020019080838360005b83811015610a23578082015181840152602081019050610a08565b50505050905090810190601f168015610a505780820380516001836020036101000a031916815260200191505b509250505060405180910390f35b610a8a60048036036020811015610a7457600080fd5b8101908080359060200190929190505050611869565b6040518080602001828103825283818151815260200191508051906020019080838360005b83811015610aca578082015181840152602081019050610aaf565b50505050905090810190601f168015610af75780820380516001836020036101000a031916815260200191505b509250505060405180910390f35b610b0d61192f565b6000601080602002604051908101604052809291908260108015610b7c576020028201915b8160009054906101000a900473ffffffffffffffffffffffffffffffffffffffff1673ffffffffffffffffffffffffffffffffffffffff1681526020019060010190808311610b32575b5050505050905090565b60008160108110610b9357fe5b016000915054906101000a900473ffffffffffffffffffffffffffffffffffffffff1681565b6060600060108381548110610bca57fe5b90600052602060002090600802019050806006018054600181600116156101000203166002900480601f016020809104026020016040519081016040528092919081815260200182805460018160011615610100020316600290048015610c725780601f10610c4757610100808354040283529160200191610c72565b820191906000526020600020905b815481529060010190602001808311610c5557829003601f168201915b5050505050915050919050565b6000601080549050905060106040518061012001604052808381526020018f8f8080601f016020809104026020016040519081016040528093929190818152602001838380828437600081840152601f19601f8201169050808301925050505050505081526020018d8d8080601f016020809104026020016040519081016040528093929190818152602001838380828437600081840152601f19601f8201169050808301925050505050505081526020013373ffffffffffffffffffffffffffffffffffffffff1681526020016000151581526020018b8b8080601f016020809104026020016040519081016040528093929190818152602001838380828437600081840152601f19601f82011690508083019250505050505050815260200189898080601f016020809104026020016040519081016040528093929190818152602001838380828437600081840152601f19601f82011690508083019250505050505050815260200187878080601f016020809104026020016040519081016040528093929190818152602001838380828437600081840152601f19601f82011690508083019250505050505050815260200185858080601f016020809104026020016040519081016040528093929190818152602001838380828437600081840152601f19601f8201169050808301925050505050505081525090806001815401808255809150509060018203906000526020600020906008020160009091929091909150600082015181600001556020820151816001019080519060200190610ecd929190611952565b506040820151816002019080519060200190610eea929190611952565b5060608201518160030160006101000a81548173ffffffffffffffffffffffffffffffffffffffff021916908373ffffffffffffffffffffffffffffffffffffffff16021790555060808201518160030160146101000a81548160ff02191690831515021790555060a0820151816004019080519060200190610f6e929190611952565b5060c0820151816005019080519060200190610f8b929190611952565b5060e0820151816006019080519060200190610fa8929190611952565b50610100820151816007019080519060200190610fc6929190611952565b5050505050505050505050505050505050565b60008060108381548110610fe957fe5b906000526020600020906008020190508060000154915050919050565b606060006010838154811061101757fe5b90600052602060002090600802019050806004018054600181600116156101000203166002900480601f0160208091040260200160405190810160405280929190818152602001828054600181600116156101000203166002900480156110bf5780601f10611094576101008083540402835291602001916110bf565b820191906000526020600020905b8154815290600101906020018083116110a257829003601f168201915b5050505050915050919050565b601081815481106110d957fe5b9060005260206000209060080201600091509050806000015490806001018054600181600116156101000203166002900480601f01602080910402602001604051908101604052809291908181526020018280546001816001161561010002031660029004801561118b5780601f106111605761010080835404028352916020019161118b565b820191906000526020600020905b81548152906001019060200180831161116e57829003601f168201915b505050505090806002018054600181600116156101000203166002900480601f0160208091040260200160405190810160405280929190818152602001828054600181600116156101000203166002900480156112295780601f106111fe57610100808354040283529160200191611229565b820191906000526020600020905b81548152906001019060200180831161120c57829003601f168201915b5050505050908060030160009054906101000a900473ffffffffffffffffffffffffffffffffffffffff16908060030160149054906101000a900460ff1690806004018054600181600116156101000203166002900480601f0160208091040260200160405190810160405280929190818152602001828054600181600116156101000203166002900480156113005780601f106112d557610100808354040283529160200191611300565b820191906000526020600020905b8154815290600101906020018083116112e357829003601f168201915b505050505090806005018054600181600116156101000203166002900480601f01602080910402602001604051908101604052809291908181526020018280546001816001161561010002031660029004801561139e5780601f106113735761010080835404028352916020019161139e565b820191906000526020600020905b81548152906001019060200180831161138157829003601f168201915b505050505090806006018054600181600116156101000203166002900480601f01602080910402602001604051908101604052809291908181526020018280546001816001161561010002031660029004801561143c5780601f106114115761010080835404028352916020019161143c565b820191906000526020600020905b81548152906001019060200180831161141f57829003601f168201915b505050505090806007018054600181600116156101000203166002900480601f0160208091040260200160405190810160405280929190818152602001828054600181600116156101000203166002900480156114da5780601f106114af576101008083540402835291602001916114da565b820191906000526020600020905b8154815290600101906020018083116114bd57829003601f168201915b5050505050905089565b60008082101580156114f7575060068211155b61150057600080fd5b336000836010811061150e57fe5b0160006101000a81548173ffffffffffffffffffffffffffffffffffffffff021916908373ffffffffffffffffffffffffffffffffffffffff1602179055506000826010811061155a57fe5b0160009054906101000a900473ffffffffffffffffffffffffffffffffffffffff166010838154811061158957fe5b906000526020600020906008020160030160006101000a81548173ffffffffffffffffffffffffffffffffffffffff021916908373ffffffffffffffffffffffffffffffffffffffff1602179055506001601083815481106115e757fe5b906000526020600020906008020160030160146101000a81548160ff021916908315150217905550819050919050565b606060006010838154811061162857fe5b90600052602060002090600802019050806002018054600181600116156101000203166002900480601f0160208091040260200160405190810160405280929190818152602001828054600181600116156101000203166002900480156116d05780601f106116a5576101008083540402835291602001916116d0565b820191906000526020600020905b8154815290600101906020018083116116b357829003601f168201915b5050505050915050919050565b60606000601083815481106116ee57fe5b90600052602060002090600802019050806005018054600181600116156101000203166002900480601f0160208091040260200160405190810160405280929190818152602001828054600181600116156101000203166002900480156117965780601f1061176b57610100808354040283529160200191611796565b820191906000526020600020905b81548152906001019060200180831161177957829003601f168201915b5050505050915050919050565b60606000601083815481106117b457fe5b90600052602060002090600802019050806001018054600181600116156101000203166002900480601f01602080910402602001604051908101604052809291908181526020018280546001816001161561010002031660029004801561185c5780601f106118315761010080835404028352916020019161185c565b820191906000526020600020905b81548152906001019060200180831161183f57829003601f168201915b5050505050915050919050565b606060006010838154811061187a57fe5b90600052602060002090600802019050806007018054600181600116156101000203166002900480601f0160208091040260200160405190810160405280929190818152602001828054600181600116156101000203166002900480156119225780601f106118f757610100808354040283529160200191611922565b820191906000526020600020905b81548152906001019060200180831161190557829003601f168201915b5050505050915050919050565b604051806102000160405280601090602082028038833980820191505090505090565b828054600181600116156101000203166002900490600052602060002090601f016020900481019282601f1061199357805160ff19168380011785556119c1565b828001600101855582156119c1579182015b828111156119c05782518255916020019190600101906119a5565b5b5090506119ce91906119d2565b5090565b6119f491905b808211156119f05760008160009055506001016119d8565b5090565b9056fea265627a7a7231582048e5e99eae7562fd24bc1bf5c9e17ed659937b5c34737f384533359f47d41d7f64736f6c63430005100032",
  "source": "/*\r\n1. Display all available pets\r\n2. adoption screen that removes a pet from the availability list \r\n3. intake screen that adds a pet from the availability list\r\n4. Additional information or detailed screen for each pet \r\n5. Display for resources for taking care of a pet\r\n}\r\n*/\r\n\r\n// SPDX-License-Identifier: MIT\r\npragma solidity ^0.5.0;\r\n\r\ncontract Adoption {\r\n\r\n    address[16] public adopters;\r\n\r\n    struct Pet {\r\n        uint id;\r\n        string name;\r\n        string age; \r\n        address owner; \r\n        bool isAdopted;\r\n        string species;\r\n        string breed;\r\n        string picture;\r\n        string location;\r\n    }\r\n\r\n    Pet[] public availablePets;\r\n\r\n    function addPet(string calldata _name, string calldata _age, string calldata _species, string calldata _breed, string calldata _picture, string calldata _location) external \r\n    {\r\n        uint size = availablePets.length;\r\n        availablePets.push(Pet({id: size, name : _name, age: _age, species: _species, breed: _breed, picture: _picture, location: _location, isAdopted: false , owner: msg.sender}));\r\n    }\r\n\r\n    function getPetName(uint index) external view returns (string memory)\r\n    {\r\n      Pet storage pet = availablePets[index];\r\n      return pet.name;\r\n    }\r\n\r\n    function getPetAge(uint index) external view returns (string memory)\r\n    {\r\n      Pet storage pet = availablePets[index];\r\n      return pet.age;\r\n    }\r\n\r\n    function getPetSpecies(uint index) external view returns (string memory)\r\n    {\r\n      Pet storage pet = availablePets[index];\r\n      return pet.species;\r\n    }\r\n\r\n    function getPetBreed(uint index) external view returns (string memory)\r\n    {\r\n      Pet storage pet = availablePets[index];\r\n      return pet.breed;\r\n    }\r\n\r\n    function getPetPicture(uint index) external view returns (string memory)\r\n    {\r\n      Pet storage pet = availablePets[index];\r\n      return pet.picture;\r\n    }\r\n\r\n    function getPetId(uint index) external view returns (uint)\r\n    {\r\n      Pet storage pet = availablePets[index];\r\n      return pet.id;\r\n    }\r\n\r\n    function getPetLocation(uint index) external view returns (string memory)\r\n    {\r\n       Pet storage pet = availablePets[index];\r\n       return pet.location;\r\n    }\r\n\r\n    // Adopting a pet\r\n    function adopt(uint petId) public returns (uint) {\r\n    require(petId >= 0 && petId <= 6);\r\n\r\n    adopters[petId] = msg.sender;\r\n    availablePets[petId].owner = adopters[petId];\r\n    availablePets[petId].isAdopted = true;\r\n\r\n    return petId;\r\n    }\r\n\r\n    // Retrieving the adopters\r\n    function getAdopters() public view returns (address[16] memory) {\r\n    return adopters;\r\n    }\r\n\r\n}\r\n",
  "sourcePath": "C:\\Users\\Keatf\\Documents\\Spring 2023\\CS 391\\Project\\Pet Adoption\\contracts\\Adoption.sol",
  "compiler": {
    "name": "solc",
    "version": "0.5.16+commit.9c3226ce.Emscripten.clang"
  },
  "schemaVersion": "3.4.14",
  "updatedAt": "2023-06-11T21:02:34.983Z",
  "devdoc": {
    "methods": {}
  },
  "userdoc": {
    "methods": {}
  }
}